{
  "contractName": "SingleFlashNFT",
  "abi": [
    {
      "inputs": [
        {
          "internalType": "address",
          "name": "_addressProvider",
          "type": "address"
        },
        {
          "internalType": "address",
          "name": "_LeaseNFTAddress",
          "type": "address"
        },
        {
          "internalType": "uint256",
          "name": "_leaseID",
          "type": "uint256"
        }
      ],
      "stateMutability": "payable",
      "type": "constructor"
    },
    {
      "anonymous": false,
      "inputs": [
        {
          "indexed": true,
          "internalType": "address",
          "name": "_from",
          "type": "address"
        },
        {
          "indexed": true,
          "internalType": "address",
          "name": "_assetAddress",
          "type": "address"
        },
        {
          "indexed": false,
          "internalType": "uint256",
          "name": "amount",
          "type": "uint256"
        }
      ],
      "name": "LogWithdraw",
      "type": "event"
    },
    {
      "anonymous": false,
      "inputs": [
        {
          "indexed": true,
          "internalType": "address",
          "name": "previousOwner",
          "type": "address"
        },
        {
          "indexed": true,
          "internalType": "address",
          "name": "newOwner",
          "type": "address"
        }
      ],
      "name": "OwnershipTransferred",
      "type": "event"
    },
    {
      "inputs": [],
      "name": "addressesProvider",
      "outputs": [
        {
          "internalType": "contract ILendingPoolAddressesProvider",
          "name": "",
          "type": "address"
        }
      ],
      "stateMutability": "view",
      "type": "function"
    },
    {
      "inputs": [],
      "name": "owner",
      "outputs": [
        {
          "internalType": "address",
          "name": "",
          "type": "address"
        }
      ],
      "stateMutability": "view",
      "type": "function"
    },
    {
      "inputs": [],
      "name": "renounceOwnership",
      "outputs": [],
      "stateMutability": "nonpayable",
      "type": "function"
    },
    {
      "inputs": [
        {
          "internalType": "address",
          "name": "newOwner",
          "type": "address"
        }
      ],
      "name": "transferOwnership",
      "outputs": [],
      "stateMutability": "nonpayable",
      "type": "function"
    },
    {
      "inputs": [
        {
          "internalType": "address",
          "name": "_assetAddress",
          "type": "address"
        }
      ],
      "name": "withdraw",
      "outputs": [],
      "stateMutability": "nonpayable",
      "type": "function"
    },
    {
      "stateMutability": "payable",
      "type": "receive"
    },
    {
      "inputs": [
        {
          "internalType": "address",
          "name": "_reserve",
          "type": "address"
        },
        {
          "internalType": "uint256",
          "name": "_amount",
          "type": "uint256"
        },
        {
          "internalType": "uint256",
          "name": "_fee",
          "type": "uint256"
        },
        {
          "internalType": "bytes",
          "name": "_params",
          "type": "bytes"
        }
      ],
      "name": "executeOperation",
      "outputs": [],
      "stateMutability": "nonpayable",
      "type": "function"
    },
    {
      "inputs": [
        {
          "internalType": "uint256",
          "name": "_amount",
          "type": "uint256"
        },
        {
          "internalType": "uint256",
          "name": "_leaseID",
          "type": "uint256"
        }
      ],
      "name": "flashloan",
      "outputs": [],
      "stateMutability": "nonpayable",
      "type": "function"
    }
  ],
  "bytecode": "0x608060405260405162002584380380620025848339818101604052810190620000299190620004ae565b8260006200003c6200034160201b60201c565b9050806000806101000a81548173ffffffffffffffffffffffffffffffffffffffff021916908373ffffffffffffffffffffffffffffffffffffffff1602179055508073ffffffffffffffffffffffffffffffffffffffff16600073ffffffffffffffffffffffffffffffffffffffff167f8be0079c531659141344cd1fd0a4f28419497f9722a3daafe3b4186f6b6457e060405160405180910390a35080600160006101000a81548173ffffffffffffffffffffffffffffffffffffffff021916908373ffffffffffffffffffffffffffffffffffffffff1602179055505081600260006101000a81548173ffffffffffffffffffffffffffffffffffffffff021916908373ffffffffffffffffffffffffffffffffffffffff1602179055506000600260009054906101000a900473ffffffffffffffffffffffffffffffffffffffff1690508073ffffffffffffffffffffffffffffffffffffffff16631284c4eb836040518263ffffffff1660e01b8152600401620001bf919062000542565b61014060405180830381600087803b158015620001db57600080fd5b505af1158015620001f0573d6000803e3d6000fd5b505050506040513d601f19601f8201168201806040525081019062000216919062000504565b60600151600460006101000a81548173ffffffffffffffffffffffffffffffffffffffff021916908373ffffffffffffffffffffffffffffffffffffffff1602179055508073ffffffffffffffffffffffffffffffffffffffff16631284c4eb836040518263ffffffff1660e01b815260040162000295919062000542565b61014060405180830381600087803b158015620002b157600080fd5b505af1158015620002c6573d6000803e3d6000fd5b505050506040513d601f19601f82011682018060405250810190620002ec919062000504565b6080015160058190555083600160006101000a81548173ffffffffffffffffffffffffffffffffffffffff021916908373ffffffffffffffffffffffffffffffffffffffff160217905550505050506200063e565b600033905090565b6000815190506200035a81620005df565b92915050565b6000815190506200037181620005f9565b92915050565b600081519050620003888162000613565b92915050565b60006101408284031215620003a257600080fd5b620003af6101406200055f565b90506000620003c18482850162000497565b6000830152506020620003d78482850162000360565b6020830152506040620003ed8482850162000360565b6040830152506060620004038482850162000349565b6060830152506080620004198482850162000497565b60808301525060a06200042f8482850162000497565b60a08301525060c0620004458482850162000497565b60c08301525060e06200045b8482850162000497565b60e083015250610100620004728482850162000497565b610100830152506101206200048a8482850162000377565b6101208301525092915050565b600081519050620004a88162000624565b92915050565b600080600060608486031215620004c457600080fd5b6000620004d48682870162000349565b9350506020620004e78682870162000349565b9250506040620004fa8682870162000497565b9150509250925092565b600061014082840312156200051857600080fd5b600062000528848285016200038e565b91505092915050565b6200053c81620005d5565b82525050565b600060208201905062000559600083018462000531565b92915050565b6000604051905081810181811067ffffffffffffffff821117156200058357600080fd5b8060405250919050565b60006200059a82620005b5565b9050919050565b6000620005ae82620005b5565b9050919050565b600073ffffffffffffffffffffffffffffffffffffffff82169050919050565b6000819050919050565b620005ea816200058d565b8114620005f657600080fd5b50565b6200060481620005a1565b81146200061057600080fd5b50565b600481106200062157600080fd5b50565b6200062f81620005d5565b81146200063b57600080fd5b50565b611f36806200064e6000396000f3fe6080604052600436106100745760003560e01c80638da5cb5b1161004e5780638da5cb5b146100e9578063c72c4d1014610114578063ee8725581461013f578063f2fde38b146101685761007b565b806351cff8d914610080578063715018a6146100a95780638b314f29146100c05761007b565b3661007b57005b600080fd5b34801561008c57600080fd5b506100a760048036038101906100a291906115d4565b610191565b005b3480156100b557600080fd5b506100be610353565b005b3480156100cc57600080fd5b506100e760048036038101906100e2919061174b565b6104a8565b005b3480156100f557600080fd5b506100fe610796565b60405161010b9190611b44565b60405180910390f35b34801561012057600080fd5b506101296107bf565b6040516101369190611bd4565b60405180910390f35b34801561014b57600080fd5b506101666004803603810190610161919061164f565b6107e5565b005b34801561017457600080fd5b5061018f600480360381019061018a91906115d4565b610c30565b005b60008073ffffffffffffffffffffffffffffffffffffffff168273ffffffffffffffffffffffffffffffffffffffff1614156102335760003090508073ffffffffffffffffffffffffffffffffffffffff163191503373ffffffffffffffffffffffffffffffffffffffff166108fc839081150290604051600060405180830381858888f1935050505015801561022c573d6000803e3d6000fd5b50506102ea565b8173ffffffffffffffffffffffffffffffffffffffff166370a08231306040518263ffffffff1660e01b815260040161026c9190611b44565b60206040518083038186803b15801561028457600080fd5b505afa158015610298573d6000803e3d6000fd5b505050506040513d601f19601f820116820180604052508101906102bc9190611722565b90506102e933828473ffffffffffffffffffffffffffffffffffffffff16610df49092919063ffffffff16565b5b8173ffffffffffffffffffffffffffffffffffffffff163373ffffffffffffffffffffffffffffffffffffffff167f9207361cc2a04b9c7a06691df1eb87c6a63957ae88bf01d0d18c81e3d1272099836040516103479190611d11565b60405180910390a35050565b61035b610e7a565b73ffffffffffffffffffffffffffffffffffffffff166000809054906101000a900473ffffffffffffffffffffffffffffffffffffffff1673ffffffffffffffffffffffffffffffffffffffff16146103e9576040517f08c379a00000000000000000000000000000000000000000000000000000000081526004016103e090611cb1565b60405180910390fd5b600073ffffffffffffffffffffffffffffffffffffffff166000809054906101000a900473ffffffffffffffffffffffffffffffffffffffff1673ffffffffffffffffffffffffffffffffffffffff167f8be0079c531659141344cd1fd0a4f28419497f9722a3daafe3b4186f6b6457e060405160405180910390a360008060006101000a81548173ffffffffffffffffffffffffffffffffffffffff021916908373ffffffffffffffffffffffffffffffffffffffff160217905550565b6000600260009054906101000a900473ffffffffffffffffffffffffffffffffffffffff1690508073ffffffffffffffffffffffffffffffffffffffff16631284c4eb836040518263ffffffff1660e01b81526004016105089190611d11565b61014060405180830381600087803b15801561052357600080fd5b505af1158015610537573d6000803e3d6000fd5b505050506040513d601f19601f8201168201806040525081019061055b91906116f8565b60600151600460006101000a81548173ffffffffffffffffffffffffffffffffffffffff021916908373ffffffffffffffffffffffffffffffffffffffff1602179055508073ffffffffffffffffffffffffffffffffffffffff16631284c4eb836040518263ffffffff1660e01b81526004016105d89190611d11565b61014060405180830381600087803b1580156105f357600080fd5b505af1158015610607573d6000803e3d6000fd5b505050506040513d601f19601f8201168201806040525081019061062b91906116f8565b608001516005819055508160038190555060606040518060200160405280600081525090506000670de0b6b3a764000085029050600073eeeeeeeeeeeeeeeeeeeeeeeeeeeeeeeeeeeeeeee90506000600160009054906101000a900473ffffffffffffffffffffffffffffffffffffffff1673ffffffffffffffffffffffffffffffffffffffff16630261bf8b6040518163ffffffff1660e01b815260040160206040518083038186803b1580156106e257600080fd5b505afa1580156106f6573d6000803e3d6000fd5b505050506040513d601f19601f8201168201806040525081019061071a91906115fd565b90508073ffffffffffffffffffffffffffffffffffffffff16635cffe9de308486886040518563ffffffff1660e01b815260040161075b9493929190611b5f565b600060405180830381600087803b15801561077557600080fd5b505af1158015610789573d6000803e3d6000fd5b5050505050505050505050565b60008060009054906101000a900473ffffffffffffffffffffffffffffffffffffffff16905090565b600160009054906101000a900473ffffffffffffffffffffffffffffffffffffffff1681565b6107ef3086610e82565b841115610831576040517f08c379a000000000000000000000000000000000000000000000000000000000815260040161082890611c91565b60405180910390fd5b6000600260009054906101000a900473ffffffffffffffffffffffffffffffffffffffff1690508073ffffffffffffffffffffffffffffffffffffffff1663a608db628273ffffffffffffffffffffffffffffffffffffffff16631284c4eb6003546040518263ffffffff1660e01b81526004016108af9190611d11565b61014060405180830381600087803b1580156108ca57600080fd5b505af11580156108de573d6000803e3d6000fd5b505050506040513d601f19601f8201168201806040525081019061090291906116f8565b60a001516003546040518363ffffffff1660e01b81526004016109259190611d11565b6000604051808303818588803b15801561093e57600080fd5b505af1158015610952573d6000803e3d6000fd5b50505050506000600460009054906101000a900473ffffffffffffffffffffffffffffffffffffffff1690508073ffffffffffffffffffffffffffffffffffffffff1663095ea7b3600260009054906101000a900473ffffffffffffffffffffffffffffffffffffffff166005546040518363ffffffff1660e01b81526004016109dd929190611bab565b600060405180830381600087803b1580156109f757600080fd5b505af1158015610a0b573d6000803e3d6000fd5b505050508173ffffffffffffffffffffffffffffffffffffffff16634007364f6003546040518263ffffffff1660e01b8152600401610a4a9190611d11565b600060405180830381600087803b158015610a6457600080fd5b505af1158015610a78573d6000803e3d6000fd5b505050508173ffffffffffffffffffffffffffffffffffffffff16631284c4eb6003546040518263ffffffff1660e01b8152600401610ab79190611d11565b61014060405180830381600087803b158015610ad257600080fd5b505af1158015610ae6573d6000803e3d6000fd5b505050506040513d601f19601f82011682018060405250810190610b0a91906116f8565b6020015173ffffffffffffffffffffffffffffffffffffffff168173ffffffffffffffffffffffffffffffffffffffff16636352211e6005546040518263ffffffff1660e01b8152600401610b5f9190611d11565b60206040518083038186803b158015610b7757600080fd5b505afa158015610b8b573d6000803e3d6000fd5b505050506040513d601f19601f82011682018060405250810190610baf91906115fd565b73ffffffffffffffffffffffffffffffffffffffff1614610c05576040517f08c379a0000000000000000000000000000000000000000000000000000000008152600401610bfc90611c51565b60405180910390fd5b6000610c1a8688610f7d90919063ffffffff16565b9050610c268882610fd2565b5050505050505050565b610c38610e7a565b73ffffffffffffffffffffffffffffffffffffffff166000809054906101000a900473ffffffffffffffffffffffffffffffffffffffff1673ffffffffffffffffffffffffffffffffffffffff1614610cc6576040517f08c379a0000000000000000000000000000000000000000000000000000000008152600401610cbd90611cb1565b60405180910390fd5b600073ffffffffffffffffffffffffffffffffffffffff168173ffffffffffffffffffffffffffffffffffffffff161415610d36576040517f08c379a0000000000000000000000000000000000000000000000000000000008152600401610d2d90611c11565b60405180910390fd5b8073ffffffffffffffffffffffffffffffffffffffff166000809054906101000a900473ffffffffffffffffffffffffffffffffffffffff1673ffffffffffffffffffffffffffffffffffffffff167f8be0079c531659141344cd1fd0a4f28419497f9722a3daafe3b4186f6b6457e060405160405180910390a3806000806101000a81548173ffffffffffffffffffffffffffffffffffffffff021916908373ffffffffffffffffffffffffffffffffffffffff16021790555050565b610e758363a9059cbb60e01b8484604051602401610e13929190611bab565b604051602081830303815290604052907bffffffffffffffffffffffffffffffffffffffffffffffffffffffff19166020820180517bffffffffffffffffffffffffffffffffffffffffffffffffffffffff8381831617835250505050611086565b505050565b600033905090565b600073eeeeeeeeeeeeeeeeeeeeeeeeeeeeeeeeeeeeeeee73ffffffffffffffffffffffffffffffffffffffff168273ffffffffffffffffffffffffffffffffffffffff161415610eeb578273ffffffffffffffffffffffffffffffffffffffff16319050610f77565b8173ffffffffffffffffffffffffffffffffffffffff166370a08231846040518263ffffffff1660e01b8152600401610f249190611b44565b60206040518083038186803b158015610f3c57600080fd5b505afa158015610f50573d6000803e3d6000fd5b505050506040513d601f19601f82011682018060405250810190610f749190611722565b90505b92915050565b600080828401905083811015610fc8576040517f08c379a0000000000000000000000000000000000000000000000000000000008152600401610fbf90611c31565b60405180910390fd5b8091505092915050565b6000600160009054906101000a900473ffffffffffffffffffffffffffffffffffffffff1673ffffffffffffffffffffffffffffffffffffffff1663ed6ff7606040518163ffffffff1660e01b815260040160206040518083038186803b15801561103c57600080fd5b505afa158015611050573d6000803e3d6000fd5b505050506040513d601f19601f820116820180604052508101906110749190611626565b905061108181848461114d565b505050565b60606110e8826040518060400160405280602081526020017f5361666545524332303a206c6f772d6c6576656c2063616c6c206661696c65648152508573ffffffffffffffffffffffffffffffffffffffff1661127f9092919063ffffffff16565b9050600081511115611148578080602001905181019061110891906116cf565b611147576040517f08c379a000000000000000000000000000000000000000000000000000000000815260040161113e90611cf1565b60405180910390fd5b5b505050565b73eeeeeeeeeeeeeeeeeeeeeeeeeeeeeeeeeeeeeeee73ffffffffffffffffffffffffffffffffffffffff168273ffffffffffffffffffffffffffffffffffffffff16141561124e5760008373ffffffffffffffffffffffffffffffffffffffff16826040516111bb90611b2f565b60006040518083038185875af1925050503d80600081146111f8576040519150601f19603f3d011682016040523d82523d6000602084013e6111fd565b606091505b505090506001151581151514611248576040517f08c379a000000000000000000000000000000000000000000000000000000000815260040161123f90611c71565b60405180910390fd5b5061127a565b61127983828473ffffffffffffffffffffffffffffffffffffffff16610df49092919063ffffffff16565b5b505050565b606061128e8484600085611297565b90509392505050565b60606112a2856113ba565b6112e1576040517f08c379a00000000000000000000000000000000000000000000000000000000081526004016112d890611cd1565b60405180910390fd5b600060608673ffffffffffffffffffffffffffffffffffffffff16858760405161130b9190611b18565b60006040518083038185875af1925050503d8060008114611348576040519150601f19603f3d011682016040523d82523d6000602084013e61134d565b606091505b509150915081156113625780925050506113b2565b6000815111156113755780518082602001fd5b836040517f08c379a00000000000000000000000000000000000000000000000000000000081526004016113a99190611bef565b60405180910390fd5b949350505050565b60008060007fc5d2460186f7233c927e7db2dcc703c0e500b653ca82273b7bfad8045d85a47060001b9050833f91508082141580156113fc57506000801b8214155b92505050919050565b60008135905061141481611e94565b92915050565b60008151905061142981611e94565b92915050565b60008151905061143e81611eab565b92915050565b60008151905061145381611ec2565b92915050565b60008083601f84011261146b57600080fd5b8235905067ffffffffffffffff81111561148457600080fd5b60208301915083600182028301111561149c57600080fd5b9250929050565b6000815190506114b281611ed9565b92915050565b600061014082840312156114cb57600080fd5b6114d6610140611d2c565b905060006114e6848285016115bf565b60008301525060206114fa8482850161142f565b602083015250604061150e8482850161142f565b60408301525060606115228482850161141a565b6060830152506080611536848285016115bf565b60808301525060a061154a848285016115bf565b60a08301525060c061155e848285016115bf565b60c08301525060e0611572848285016115bf565b60e083015250610100611587848285016115bf565b6101008301525061012061159d848285016114a3565b6101208301525092915050565b6000813590506115b981611ee9565b92915050565b6000815190506115ce81611ee9565b92915050565b6000602082840312156115e657600080fd5b60006115f484828501611405565b91505092915050565b60006020828403121561160f57600080fd5b600061161d8482850161141a565b91505092915050565b60006020828403121561163857600080fd5b60006116468482850161142f565b91505092915050565b60008060008060006080868803121561166757600080fd5b600061167588828901611405565b9550506020611686888289016115aa565b9450506040611697888289016115aa565b935050606086013567ffffffffffffffff8111156116b457600080fd5b6116c088828901611459565b92509250509295509295909350565b6000602082840312156116e157600080fd5b60006116ef84828501611444565b91505092915050565b6000610140828403121561170b57600080fd5b6000611719848285016114b8565b91505092915050565b60006020828403121561173457600080fd5b6000611742848285016115bf565b91505092915050565b6000806040838503121561175e57600080fd5b600061176c858286016115aa565b925050602061177d858286016115aa565b9150509250929050565b61179081611df6565b82525050565b61179f81611d9c565b82525050565b60006117b082611d59565b6117ba8185611d6f565b93506117ca818560208601611e50565b6117d381611e83565b840191505092915050565b60006117e982611d59565b6117f38185611d80565b9350611803818560208601611e50565b80840191505092915050565b61181881611e08565b82525050565b600061182982611d64565b6118338185611d8b565b9350611843818560208601611e50565b61184c81611e83565b840191505092915050565b6000611864602683611d8b565b91507f4f776e61626c653a206e6577206f776e657220697320746865207a65726f206160008301527f64647265737300000000000000000000000000000000000000000000000000006020830152604082019050919050565b60006118ca601b83611d8b565b91507f536166654d6174683a206164646974696f6e206f766572666c6f7700000000006000830152602082019050919050565b600061190a602a83611d8b565b91507f4e465420686173206e6f74206265656e207265747572656420746f206f72696760008301527f696e616c206f776e6572000000000000000000000000000000000000000000006020830152604082019050919050565b6000611970601583611d8b565b91507f436f756c646e2774207472616e736665722045544800000000000000000000006000830152602082019050919050565b60006119b0602e83611d8b565b91507f496e76616c69642062616c616e63652c207761732074686520666c6173684c6f60008301527f616e207375636365737366756c3f0000000000000000000000000000000000006020830152604082019050919050565b6000611a16602083611d8b565b91507f4f776e61626c653a2063616c6c6572206973206e6f7420746865206f776e65726000830152602082019050919050565b6000611a56600083611d80565b9150600082019050919050565b6000611a70601d83611d8b565b91507f416464726573733a2063616c6c20746f206e6f6e2d636f6e74726163740000006000830152602082019050919050565b6000611ab0602a83611d8b565b91507f5361666545524332303a204552433230206f7065726174696f6e20646964206e60008301527f6f742073756363656564000000000000000000000000000000000000000000006020830152604082019050919050565b611b1281611dec565b82525050565b6000611b2482846117de565b915081905092915050565b6000611b3a82611a49565b9150819050919050565b6000602082019050611b596000830184611796565b92915050565b6000608082019050611b746000830187611787565b611b816020830186611796565b611b8e6040830185611b09565b8181036060830152611ba081846117a5565b905095945050505050565b6000604082019050611bc06000830185611796565b611bcd6020830184611b09565b9392505050565b6000602082019050611be9600083018461180f565b92915050565b60006020820190508181036000830152611c09818461181e565b905092915050565b60006020820190508181036000830152611c2a81611857565b9050919050565b60006020820190508181036000830152611c4a816118bd565b9050919050565b60006020820190508181036000830152611c6a816118fd565b9050919050565b60006020820190508181036000830152611c8a81611963565b9050919050565b60006020820190508181036000830152611caa816119a3565b9050919050565b60006020820190508181036000830152611cca81611a09565b9050919050565b60006020820190508181036000830152611cea81611a63565b9050919050565b60006020820190508181036000830152611d0a81611aa3565b9050919050565b6000602082019050611d266000830184611b09565b92915050565b6000604051905081810181811067ffffffffffffffff82111715611d4f57600080fd5b8060405250919050565b600081519050919050565b600081519050919050565b600082825260208201905092915050565b600081905092915050565b600082825260208201905092915050565b6000611da782611dcc565b9050919050565b6000611db982611dcc565b9050919050565b60008115159050919050565b600073ffffffffffffffffffffffffffffffffffffffff82169050919050565b6000819050919050565b6000611e0182611e2c565b9050919050565b6000611e1382611e1a565b9050919050565b6000611e2582611dcc565b9050919050565b6000611e3782611e3e565b9050919050565b6000611e4982611dcc565b9050919050565b60005b83811015611e6e578082015181840152602081019050611e53565b83811115611e7d576000848401525b50505050565b6000601f19601f8301169050919050565b611e9d81611d9c565b8114611ea857600080fd5b50565b611eb481611dae565b8114611ebf57600080fd5b50565b611ecb81611dc0565b8114611ed657600080fd5b50565b60048110611ee657600080fd5b50565b611ef281611dec565b8114611efd57600080fd5b5056fea264697066735822122070e51799f687bb76d0ae4ed7d0c3afa693f9e5d01699b3f7fadfd3b317a3a85d64736f6c63430006060033",
  "immutableReferences": {},
  "source": "pragma solidity ^0.6.6;\r\npragma experimental ABIEncoderV2;\r\n\r\nimport \"./aave/FlashLoanReceiverBase.sol\";\r\nimport \"./aave/ILendingPoolAddressesProvider.sol\";\r\nimport \"./aave/ILendingPool.sol\";\r\nimport \"openzeppelin-solidity/contracts/token/ERC721/IERC721.sol\";\r\n\r\n\r\ninterface iLeaseNFT {\r\n\r\n        enum Status { PENDING, ACTIVE, CANCELLED, ENDED }\r\n\r\n\r\n        struct LeaseOffer {\r\n        uint leaseID;\r\n        address payable lessor; // Owner of asset\r\n        address payable lessee; // User of asset\r\n        address smartContractAddressOfNFT;\r\n        uint tokenIdNFT;\r\n        uint collateralAmount;\r\n        uint leasePrice;\r\n        uint leasePeriod;\r\n        uint endLeaseTimeStamp;\r\n        Status status;}\r\n\r\n    function acceptLeaseOffer(uint leaseID)external payable;\r\n    function endLeaseOffer(uint leaseID)external;\r\n\r\n    function allLeaseOffers(uint) external returns (LeaseOffer memory);\r\n}\r\n\r\ninterface ERC721Vipers {\r\n    struct Viper {\r\n        uint8 genes;\r\n        uint256 matronId;\r\n        uint256 sireId;\r\n    }\r\n    \r\n    function breedVipers(uint256 matronId, uint256 sireId) external returns (uint256);\r\n}\r\n\r\ncontract SingleFlashNFT is FlashLoanReceiverBase {\r\n    address LeaseNFTAddress;\r\n    uint leaseID;\r\n    address smartContractAddressOfNFT;\r\n    uint NFTid;\r\n\r\n    constructor(address _addressProvider, address _LeaseNFTAddress,uint _leaseID) FlashLoanReceiverBase(_addressProvider) payable public {\r\n        LeaseNFTAddress = _LeaseNFTAddress;\r\n        iLeaseNFT leaseInstance = iLeaseNFT(LeaseNFTAddress);\r\n        smartContractAddressOfNFT = leaseInstance.allLeaseOffers(_leaseID).smartContractAddressOfNFT;\r\n        NFTid = leaseInstance.allLeaseOffers(_leaseID).tokenIdNFT;\r\n\r\n        addressesProvider = ILendingPoolAddressesProvider(_addressProvider);\r\n    }\r\n\r\n    /**\r\n        This function is called after your contract has received the flash loaned amount\r\n     */\r\n    function executeOperation(\r\n        address _reserve,\r\n        uint256 _amount,\r\n        uint256 _fee,\r\n        bytes calldata _params\r\n    )\r\n        external\r\n        override\r\n    {\r\n        require(_amount <= getBalanceInternal(address(this), _reserve), \"Invalid balance, was the flashLoan successful?\");\r\n\r\n        iLeaseNFT leaseInstance = iLeaseNFT(LeaseNFTAddress);\r\n\r\n        leaseInstance.acceptLeaseOffer{value: leaseInstance.allLeaseOffers(leaseID).collateralAmount}(leaseID);\r\n\r\n        //\r\n        // Your logic goes here.\r\n        // !! Ensure that *this contract* has enough of `_reserve` funds to payback the `_fee` !!\r\n\r\n        // both NFTs have the same Contract address\r\n        // ERC721Vipers instanceOfNFT = ERC721Vipers(smartContractAddressOfNFT1);\r\n        // just breeding\r\n        // instanceOfNFT.breedVipers(NFTid1, NFTid2);\r\n        \r\n        //\r\n        /// Check NFT is returned to the Contract address.\r\n        IERC721 NFTInstance = IERC721(smartContractAddressOfNFT);\r\n        NFTInstance.approve(LeaseNFTAddress, NFTid);\r\n\r\n        leaseInstance.endLeaseOffer(leaseID);\r\n\r\n        require(NFTInstance.ownerOf(NFTid) == leaseInstance.allLeaseOffers(leaseID).lessor, \"NFT has not been retured to original owner\");\r\n\r\n        uint totalDebt = _amount.add(_fee);\r\n        transferFundsBackToPoolInternal(_reserve, totalDebt);\r\n        // (msg.sender).transfer(address(this).balance); // Send profit ETH back to Owner.\r\n    }\r\n\r\n    /**\r\n        Flash loan 1000000000000000000 wei (1 ether) worth of `_asset`\r\n        Enter Amount to loan and NFTid that you wish to lease on NFT.finance\r\n     */\r\n    function flashloan(uint _amount,uint _leaseID) public { // add onlyOwner\r\n        iLeaseNFT leaseInstance = iLeaseNFT(LeaseNFTAddress);\r\n        smartContractAddressOfNFT = leaseInstance.allLeaseOffers(_leaseID).smartContractAddressOfNFT;\r\n        NFTid = leaseInstance.allLeaseOffers(_leaseID).tokenIdNFT;\r\n        leaseID = _leaseID;\r\n\r\n        bytes memory data = \"\";\r\n        uint amount = _amount * 1 ether; // x 1e18\r\n\r\n        address _asset = 0xEeeeeEeeeEeEeeEeEeEeeEEEeeeeEeeeeeeeEEeE; // Ethereum\r\n        ILendingPool lendingPool = ILendingPool(addressesProvider.getLendingPool());\r\n        lendingPool.flashLoan(address(this), _asset, amount, data);\r\n    }\r\n\r\n}\r\n",
  "sourcePath": "C:/Users/Bc/Documents/GitHub/Encode/flashNFT/contracts/SingleFlashNFT.sol",
  "compiler": {
    "name": "solc",
    "version": "0.6.6+commit.6c089d02.Emscripten.clang"
  },
  "schemaVersion": "3.2.3",
  "updatedAt": "2020-08-11T05:17:22.281Z",
  "devdoc": {
    "methods": {
      "owner()": {
        "details": "Returns the address of the current owner."
      },
      "renounceOwnership()": {
        "details": "Leaves the contract without owner. It will not be possible to call `onlyOwner` functions anymore. Can only be called by the current owner.     * NOTE: Renouncing ownership will leave the contract without an owner, thereby removing any functionality that is only available to the owner."
      },
      "transferOwnership(address)": {
        "details": "Transfers ownership of the contract to a new account (`newOwner`). Can only be called by the current owner."
      },
      "withdraw(address)": {
        "details": "Withdraw asset.",
        "params": {
          "_assetAddress": "Asset to be withdrawn."
        }
      }
    }
  },
  "userdoc": {
    "methods": {
      "executeOperation(address,uint256,uint256,bytes)": {
        "notice": "This function is called after your contract has received the flash loaned amount"
      },
      "flashloan(uint256,uint256)": {
        "notice": "Flash loan 1000000000000000000 wei (1 ether) worth of `_asset` Enter Amount to loan and NFTid that you wish to lease on NFT.finance"
      }
    }
  }
}